:1000000074C00000D7C4000005C5000034C500005E
:1000100064C5000094C50000C3C50000F3C500001E
:1000200023C6000064C400008FC000008DC0000023
:100030008BC0000089C0000087C0000085C00000A0
:1000400045C6000081C000007FC000007DC00000E8
:100050007BC0000079C0000077C0000075C00000C0
:1000600073C00000B1C200006FC00000D6C2000023
:100070006BC000003CC2000067C0000065C000000B
:1000800063C0000061C000005FC000005DC00000F0
:100090005BC0000059C0000057C0000055C0000000
:1000A00053C0000051C000004FC000004DC0000010
:1000B0004BC0000049C0000047C0000045C0000020
:1000C00043C0000041C000003FC000003DC0000030
:1000D0003BC0000039C0000037C0000035C0000040
:1000E00033C00000D70260045D0411241FBECFEFAF
:1000F000D1E2DEBFCDBF00E00CBF12E0A0E0B2E075
:10010000E2E8F4E100E00BBF02C007900D92AC31D1
:10011000B107D9F723E0ACE1B2E001C01D92A73DE1
:10012000B207E1F710E0C8EED0E000E005C022978A
:100130000109FE010BBF0ED7C43ED10780E00807BE
:10014000B1F71AD60C94300A5BCFCF93DF93CDB7BB
:10015000DEB728970FB6F894DEBF0FBECDBFFE0105
:10016000319658E0DF011D925A95E9F7E4E2E98300
:10017000DB015C915A8311966C916B834C832D83C8
:100180003E835E2756275427522753275F83F894D0
:10019000AE014F5F5F4F68E070E02AD178942896F7
:1001A0000FB6F894DEBF0FBECDBFDF91CF9108959B
:1001B0000C9482090895CF93DF93EC018AE092E0DA
:1001C00099838883EC81FD811082EE81FF8110820A
:1001D000E885F98510828A8D9B8D9D8F8C8F1F8E6F
:1001E0001E8E8C859D850E9482098E859F85DF915C
:1001F000CF910C948209CF93DF93EC018AE092E0D7
:1002000099838883EC81FD811082EE81FF811082C9
:10021000E885F98510828A8D9B8D9D8F8C8F1F8E2E
:100220001E8E8C859D850E9482098E859F850E94E9
:100230008209CE01DF91CF91BBCFAF92BF92CF9217
:10024000DF92EF92FF920F931F93CF93DF9300D033
:100250001F92CDB7DEB75C01C801EAE0F2E0D5013C
:100260001196FC93EE9313967C936E93129751968E
:100270001C930E9350975996FC92EE9258976B01EF
:10028000B6E0CB1AD108F501D582C482FB013597BF
:10029000D5011796FC93EE93169731961996FC9319
:1002A000EE931897625071091B967C936E931A9780
:1002B00061E070E029833A834B835C8371D7F50159
:1002C0009587848761E070E0C7016AD7D5011F96E2
:1002D0009C938E931E9753961C921E9252975596FE
:1002E0001C921E92549757961C921E9256975B969C
:1002F0001C921E925A975D961C921E925C975F9676
:100300001C921E925E97F60110821696ED91FC915A
:10031000179788ED80831896ED91FC91199786E0E8
:1003200080831A96ED90FC901B9729813A814B812E
:100330005C81CA01B90160587B47814E9F4F660FAF
:10034000771F881F991F660F771F881F991F660FD9
:10035000771F881F991F220F331F441F551F220F1D
:10036000331F441F551F220F331F441F551F220FD9
:10037000331F441F551FCCD52150D7012C930F900C
:100380000F900F900F90DF91CF911F910F91FF90E1
:10039000EF90DF90CF90BF90AF900895CF93DF9311
:1003A000FC0186899789892BD9F0868997890197DD
:1003B000978B868BC281D381A485B58584899589E5
:1003C0009C012F5F3F4F358B248BA80FB91F8C9159
:1003D000888324893589808991892817390719F0FC
:1003E000DF91CF910895158A148ADF91CF910895F6
:1003F0001F93CF93DF93FC01CB010097D9F0DA0173
:10040000BA01680F791F1D91408951892689378962
:1004100024173507D9F326893789232B79F4C4812A
:10042000D581288125FF0AC0C281D3811883A617F0
:10043000B70749F7DF91CF911F910895C485D585FE
:1004400022893389A9014F5F5F4F538B428BC20FC3
:10045000D31F188342895389208931894217530752
:1004600039F0268937892F5F3F4F378B268BDFCFB7
:10047000138A128AF6CF1F93CF93DF93EC01EC819E
:10048000FD818081EA81FB8110818C7121F0DF91F7
:10049000CF911F910895E881F9810480F581E02DC5
:1004A000612FCE011995EE85FF858A8D9B8D9C016C
:1004B0002F5F3F4F3B8F2A8FE80FF91F1083288D46
:1004C000398D8A8D9B8D8217930771F08E8D9F8D4C
:1004D00001969F8F8E8F28173907C9F63F8F2E8F71
:1004E000DF91CF911F9108951B8E1A8EEFCF1F922F
:1004F0000F920FB60F9211240BB60F922F938F937A
:100500009F93EF93FF9320911C02EFEFE20FF0E037
:100510008091780090917900EE0FFF1FE35EFD4F10
:100520009183808381E0820F813120F580931C02CA
:100530008770806C80937C0080911C0283FD23C0B7
:1005400080917B00877F80937B0085E38A95F1F71C
:10055000000080917A00806480937A00FF91EF918F
:100560009F918F912F910F900BBE0F900FBE0F9008
:100570001F90189510921C0280EC80937C00809153
:100580001C0283FFDDCF80917B00886080937B001D
:10059000DCCF603148F4E62FF0E0EE0FFF1FE80FEC
:1005A000F91F80819181089580E090E0089580ECAA
:1005B00080937C008FEE80937A0010927B001092E3
:1005C0007E0010927D0008951F920F920FB60F9239
:1005D00011240BB60F922F933F934F935F936F931A
:1005E0007F938F939F93AF93BF93EF93FF938DE38D
:1005F00092E041DFFF91EF91BF91AF919F918F9179
:100600007F916F915F914F913F912F910F900BBE12
:100610000F900FBE0F901F9018951F920F920FB65C
:100620000F9211240BB60F922F933F934F935F932A
:100630006F937F938F939F93AF93BF93EF93FF93AA
:100640008DE392E0ABDEFF91EF91BF91AF919F916F
:100650008F917F916F915F914F913F912F910F906B
:100660000BBE0F900FBE0F901F901895883080F032
:1006700098EF980F983058F498B1885021E030E006
:10068000082E01C0220F0A94EAF7922B98B9089518
:1006900092B121E030E0082E01C0220F0A94EAF75F
:1006A000922B92B9089512B818B8089580915D02FE
:1006B000089513BA14BA1092010110920201109217
:1006C00004011092050110920A0110920B0114BC52
:1006D00015BC16BC17BC18BC1092B6001092B00026
:1006E0001092B1001092B2001092B3001092B400B8
:1006F0001092900010929100109295001092940028
:100700001092970010929600109299001092980003
:1007100010929B0010929A0010929D0010929C00E3
:100720001092A0001092A1001092A5001092A400B7
:100730001092A7001092A6001092A9001092A80093
:100740001092AB001092AA001092AD001092AC0073
:100750001092200110922101109225011092240183
:10076000109227011092260110922901109228015F
:1007700010922B0110922A0110922D0110922C013F
:1007800010926E0010927000109271001092720020
:100790001092730080E880BF10927F0078940895D3
:1007A000109280008BE1809381001092850010925E
:1007B000840087E99AE3909387008093860083E022
:1007C00090E0909389008093880080E280936F008E
:1007D000089511B812B814B815B817B818B81AB8DF
:1007E0001BB81DB81EB810BA1092070185E580939A
:1007F000690080936A008FEF8DBB8CBB80936B0088
:1008000010926C0010926D0081E080936800089552
:1008100081E491E01DD680935D0248EF5FEF20E018
:1008200030E061E070E014C0283050F1483048F406
:1008300097B1FB01042E01C0EE0F0A94EAF79E2B3C
:1008400097B92F5F3F4F4F5F5F4F20313105B9F0B0
:10085000281750F32830F0F0483098F797B1FB0193
:10086000042E01C0EE0F0A94EAF7E095E923E7B9F8
:100870002F5F3F4F4F5F5F4F2031310549F708959C
:1008800091B1FB01022E01C0EE0F0A94EAF79E2BF4
:1008900091B9D7CF91B1FB01022E01C0EE0F0A949E
:1008A000EAF7E095E923E1B9CCCF80E491E0D0C547
:1008B00040E451E060E070E0BBC58DE392E07BCCAA
:1008C000EF92FF920F931F9380E2E82EF12C00E04D
:1008D00012E020E032EC41E050E066EC70E08DE3A5
:1008E00092E0ABDC1F910F91FF90EF9008951F9263
:1008F0000F920FB60F9211240BB60F92EF92FF9248
:100900000F931F932F933F934F935F936F937F9317
:100910008F939F93AF93BF93EF93FF93CF93DF9307
:1009200000D0CDB7DEB783B1F8948B83809184007B
:10093000909185009A838983789401E010E0E12CFE
:1009400006C0E02E0F5F1F4F0930110589F1FF240B
:10095000FA94F00EDAD26F2DE0D1882391F32B8137
:1009600089819A8130E002C035952795EA94E2F7B3
:10097000622F61704F2D05D20F900F900F90DF9175
:10098000CF91FF91EF91BF91AF919F918F917F9107
:100990006F915F914F913F912F911F910F91FF9018
:1009A000EF900F900BBE0F900FBE0F901F901895F9
:1009B000FE2CD5CF1F920F920FB60F9211240BB6BB
:1009C0000F922F933F934F935F936F937F938F93E8
:1009D0009F93AF93BF93EF93FF93F89469B1809186
:1009E0008400909185007894617048E0CAD1FF91AD
:1009F000EF91BF91AF919F918F917F916F915F9197
:100A00004F913F912F910F900BBE0F900FBE0F9003
:100A10001F9018951F920F920FB60F9211240BB6CC
:100A20000F922F933F934F935F936F937F938F9387
:100A30009F93AF93BF93EF93FF93F89469B1809125
:100A400084009091850078946695617049E099D111
:100A5000FF91EF91BF91AF919F918F917F916F9196
:100A60005F914F913F912F910F900BBE0F900FBE52
:100A70000F901F9018951F920F920FB60F9211248E
:100A80000BB60F922F933F934F935F936F937F9388
:100A90008F939F93AF93BF93EF93FF93F89469B1B4
:100AA0008091840090918500789462FB662760F9BC
:100AB0004AE067D1FF91EF91BF91AF919F918F91E4
:100AC0007F916F915F914F913F912F910F900BBE4E
:100AD0000F900FBE0F901F9018951F920F920FB698
:100AE0000F9211240BB60F922F933F934F935F9366
:100AF0006F937F938F939F93AF93BF93EF93FF93E6
:100B0000F89469B18091840090918500789463FB9A
:100B1000662760F94BE035D1FF91EF91BF91AF911E
:100B20009F918F917F916F915F914F913F912F9105
:100B30000F900BBE0F900FBE0F901F9018951F9235
:100B40000F920FB60F9211240BB60F922F933F9373
:100B50004F935F936F937F938F939F93AF93BF93C5
:100B6000EF93FF93F8946CB180918400909185008D
:100B70007894629561704CE004D1FF91EF91BF9140
:100B8000AF919F918F917F916F915F914F913F9125
:100B90002F910F900BBE0F900FBE0F901F901895C6
:100BA0001F920F920FB60F9211240BB60F922F9334
:100BB0003F934F935F936F937F938F939F93AF93E5
:100BC000BF93EF93FF93F8946CB180918400909160
:100BD0008500789465FB662760F94DE0D2D0FF91DF
:100BE000EF91BF91AF919F918F917F916F915F91A5
:100BF0004F913F912F910F900BBE0F900FBE0F9012
:100C00001F9018951F920F920FB60F9211240BB6DA
:100C10000F922F933F934F935F936F937F938F9395
:100C20009F93AF93BF93EF93FF93F8946CB1809130
:100C3000840090918500789466FB662760F94EE009
:100C4000A0D0FF91EF91BF91AF919F918F917F9134
:100C50006F915F914F913F912F910F900BBE0F902D
:100C60000FBE0F901F9018951F920F920FB60F9204
:100C700011240BB60F922F933F934F935F936F9373
:100C80007F938F939F93AF93BF93EF93FF93F894CA
:100C90006CB180918400909185007894661F6627DE
:100CA000661F4FE06ED0FF91EF91BF91AF919F9182
:100CB0008F917F916F915F914F913F912F910F9005
:100CC0000BBE0F900FBE0F901F9018951F920F92A2
:100CD0000FB60F9211240BB60F922F933F934F93A1
:100CE0005F936F937F938F939F93AF93BF93EF9394
:100CF000FF9399D0FF91EF91BF91AF919F918F9109
:100D00007F916F915F914F913F912F910F900BBE0B
:100D10000F900FBE0F901F9018951F93CF93DF93E6
:100D20001F92CDB7DEB7182F80915E02181710F40E
:100D3000143130F080E00F90DF91CF911F91089532
:100D40006983B4DC69816817A8F7603198F7E62FEA
:100D5000F0E080E1189FE00DF11D1124E15AFD4FF4
:100D60008081E9CF8FE592E0A3DD9FDD80935E0275
:100D70004FCD80915E0208959CDCF4DF2ADD10DD0A
:100D8000FFCF1F93CF93DF93142F242F30E06111F7
:100D90000AC0E901CF53DC4F48814130B9F0DF91FF
:100DA000CF911F910895F901EF53FC4F40814111FC
:100DB000F6CFD901AA0FBB1FAF55BC4F8D939C93A3
:100DC00081E08083DF91CF911F910895F901EE0FAB
:100DD000FF1FEF55FC4F20813181BC01621B730B5B
:100DE00080E090E04FD120E030E048E651E4B6D01A
:100DF0001DD19B01412F60E172E08DE392E0A5D906
:100E00008FEF88838091D10381508093D10381112A
:100E1000C6CF8FE097E29093850080938400DF91A6
:100E2000CF911F910895CF932091D20330E049ECE8
:100E300063E172E08DE392E088D9C091D203CF5F85
:100E4000C093D20396DFC81709F44CC01092D103A7
:100E5000C0E02CDCC81750F48091D2036C2F5DDF0A
:100E6000811137C0CF5F22DCC817B0F325E32A9584
:100E7000F1F7000018DCC0E006C0EC2FF0E0EF5303
:100E8000FC4F1082CF5F12DCC817B8F3C0E003C07C
:100E9000CF5FC031E1F06C2F8DE192E07ADB8536D7
:100EA0009105B0F36C2F8DE192E073DB883E9340A7
:100EB00078F76C2F8DE192E06CDB9C014C2F69E19F
:100EC00072E08DE392E041D9CF5FC03121F7CF913D
:100ED00008958C2FCBDB8091D1038F5F8093D1035A
:100EE000CF5FC1CF1092D20320919F033091A00316
:100EF000C90101969093A00380939F0348EC66E19B
:100F000072E08DE392E021D9A1CF8091D2030895C0
:100F1000A1E21A2EAA1BBB1BFD010DC0AA1FBB1FFD
:100F2000EE1FFF1FA217B307E407F50720F0A21B6F
:100F3000B30BE40BF50B661F771F881F991F1A94DC
:100F400069F760957095809590959B01AC01BD0106
:100F5000CF0108950790F691E02D19940CD0E6C0CA
:100F6000DED040F0D5D030F021F45F3F19F0C7C09B
:100F7000511110C1CAC0EBD098F39923C9F355237E
:100F8000B1F3951B550BBB27AA276217730784077C
:100F900038F09F5F5F4F220F331F441FAA1FA9F332
:100FA00033D00E2E3AF0E0E830D091505040E69524
:100FB000001CCAF729D0FE2F27D0660F771F881F85
:100FC000BB1F261737074807AB07B0E809F0BB0B74
:100FD000802DBF01FF2793585F4F2AF09E3F510598
:100FE00068F08DC0D7C05F3FECF3983EDCF3869588
:100FF00077956795B795F7959F5FC9F7880F911D0E
:101000009695879597F90895E1E0660F771F881FF9
:10101000BB1F621773078407BA0720F0621B730BAC
:10102000840BBA0BEE1F88F7E095089598D088F0EE
:101030009F5790F0B92F9927B751A0F0D1F0660FC4
:10104000771F881F991F1AF0BA95C9F712C0B130DF
:1010500081F09FD0B1E008959CC0672F782F88273A
:10106000B85F39F0B93FCCF3869577956795B3951E
:10107000D9F73EF490958095709561957F4F8F4F8D
:101080009F4F0895E89409C097FB3EF49095809592
:10109000709561957F4F8F4F9F4F9923A9F0F92F3E
:1010A00096E9BB279395F695879577956795B795BC
:1010B000F111F8CFFAF4BB0F11F460FF1BC06F5FA2
:1010C0007F4F8F4F9F4F16C0882311F096E911C0B4
:1010D000772321F09EE8872F762F05C0662371F0D5
:1010E00096E8862F70E060E02AF09A95660F771FE9
:1010F000881FDAF7880F9695879597F9089597F9DD
:101100009F6780E870E060E008959FEF80EC0895AD
:1011100000240A94161617061806090608950024D6
:101120000A9412161306140605060895092E039450
:10113000000C11F4882352F0BB0F40F4BF2B11F4C4
:1011400060FF04C06F5F7F4F8F4F9F4F089557FD23
:101150009058440F551F59F05F3F71F04795880F25
:1011600097FB991F61F09F3F79F0879508951216BC
:1011700013061406551FF2CF4695F1DF08C0161668
:1011800017061806991FF1CF869571056105089419
:101190000895E894BB2766277727CB0197F9089530
:1011A0000F931F93CF93DF93869F8001879F100D2E
:1011B000969F100D1124C8010DD0EC01009721F06D
:1011C000A80160E070E02DD1CE01DF91CF911F9199
:1011D0000F910895CF93DF938230910510F482E050
:1011E00090E0E091D503F091D60320E030E0A0E05C
:1011F000B0E0309739F14081518148175907B8F074
:101200004817590771F482819381109729F013963A
:101210009C938E9312972CC09093D6038093D50302
:1012200027C02115310531F04217530718F0A901E5
:10123000DB0101C0EF019A01BD01DF010280F381F2
:10124000E02DD7CF21153105F9F0281B390B2430BB
:10125000310580F48A819B816115710521F0FB01C4
:101260009383828304C09093D6038093D503FE01B9
:10127000329644C0FE01E20FF31F819391932250F6
:101280003109398328833AC02091D3033091D403A4
:10129000232B41F420910202309103023093D403B6
:1012A0002093D303209100023091010221153105D2
:1012B00041F42DB73EB74091040250910502241B22
:1012C000350BE091D303F091D403E217F307A0F4B8
:1012D0002E1B3F0B2817390778F0AC014E5F5F4F8C
:1012E0002417350748F04E0F5F1F5093D4034093E7
:1012F000D3038193919302C0E0E0F0E0CF01DF914E
:10130000CF910895CF93DF93009709F487C0FC0134
:10131000329713821282C091D503D091D6032097C1
:1013200081F420813181280F391F8091D30390915E
:10133000D4038217930779F5F093D403E093D30392
:101340006DC0DE0120E030E0AE17BF0750F412960A
:101350004D915C9113979D014115510509F1DA01F9
:10136000F3CFB383A28340815181840F951F8A17E5
:101370009B0771F48D919C911197840F951F029694
:101380009183808312968D919C911397938382838E
:101390002115310529F4F093D603E093D5033EC01F
:1013A000D9011396FC93EE9312974D915D91A40F82
:1013B000B51FEA17FB0779F480819181840F951F8F
:1013C0000296D90111969C938E93828193811396F4
:1013D0009C938E931297E0E0F0E08A819B810097C6
:1013E00019F0FE01EC01F9CFCE0102962881398176
:1013F000820F931F2091D3033091D403281739070C
:1014000069F4309729F41092D6031092D50302C0E4
:1014100013821282D093D403C093D303DF91CF9170
:101420000895DC0101C06D9341505040E0F70895EC
:10143000DC01CB01FC01F999FECF06C0F2BDE1BD94
:10144000F89A319600B40D9241505040B8F7089583
:10145000F999FECF92BD81BDF89A992780B508957C
:1014600010E0C8EED0E000E005C022970109FE01BF
:101470000BBF70DDCA3ED10780E00807B1F7F894D2
:02148000FFCF9C
:101482000000D703200000000000DB00FB00DA00B0
:0C1492005352004954005342004F5000D8
:00000001FF
